{
  "contractName": "SwapperEth",
  "abi": [
    {
      "inputs": [],
      "stateMutability": "nonpayable",
      "type": "constructor"
    },
    {
      "anonymous": false,
      "inputs": [
        {
          "indexed": true,
          "internalType": "address",
          "name": "_from",
          "type": "address"
        },
        {
          "indexed": false,
          "internalType": "string",
          "name": "_forToken",
          "type": "string"
        },
        {
          "indexed": false,
          "internalType": "uint256",
          "name": "_ethAmount",
          "type": "uint256"
        },
        {
          "indexed": false,
          "internalType": "uint256",
          "name": "_tokenAmount",
          "type": "uint256"
        }
      ],
      "name": "EtherSale",
      "type": "event"
    },
    {
      "anonymous": false,
      "inputs": [
        {
          "indexed": true,
          "internalType": "address",
          "name": "previousOwner",
          "type": "address"
        },
        {
          "indexed": true,
          "internalType": "address",
          "name": "newOwner",
          "type": "address"
        }
      ],
      "name": "OwnershipTransferred",
      "type": "event"
    },
    {
      "anonymous": false,
      "inputs": [
        {
          "indexed": false,
          "internalType": "string",
          "name": "_tokenName",
          "type": "string"
        }
      ],
      "name": "TokenAdding",
      "type": "event"
    },
    {
      "anonymous": false,
      "inputs": [
        {
          "indexed": true,
          "internalType": "address",
          "name": "_from",
          "type": "address"
        },
        {
          "indexed": false,
          "internalType": "string",
          "name": "_forToken",
          "type": "string"
        },
        {
          "indexed": false,
          "internalType": "uint256",
          "name": "_ethAmount",
          "type": "uint256"
        },
        {
          "indexed": false,
          "internalType": "uint256",
          "name": "_tokenAmount",
          "type": "uint256"
        }
      ],
      "name": "TokenSale",
      "type": "event"
    },
    {
      "inputs": [],
      "name": "owner",
      "outputs": [
        {
          "internalType": "address",
          "name": "",
          "type": "address"
        }
      ],
      "stateMutability": "view",
      "type": "function"
    },
    {
      "inputs": [],
      "name": "renounceOwnership",
      "outputs": [],
      "stateMutability": "nonpayable",
      "type": "function"
    },
    {
      "inputs": [
        {
          "internalType": "string",
          "name": "",
          "type": "string"
        }
      ],
      "name": "tokenNameToInfo",
      "outputs": [
        {
          "internalType": "contract tokenStorage",
          "name": "storageInstance",
          "type": "address"
        },
        {
          "internalType": "contract AggregatorV3Interface",
          "name": "priceFeedInstance",
          "type": "address"
        },
        {
          "internalType": "address",
          "name": "tokenAddress",
          "type": "address"
        }
      ],
      "stateMutability": "view",
      "type": "function"
    },
    {
      "inputs": [
        {
          "internalType": "address",
          "name": "newOwner",
          "type": "address"
        }
      ],
      "name": "transferOwnership",
      "outputs": [],
      "stateMutability": "nonpayable",
      "type": "function"
    },
    {
      "inputs": [
        {
          "internalType": "string",
          "name": "_tokenName",
          "type": "string"
        },
        {
          "internalType": "address",
          "name": "_storageAddress",
          "type": "address"
        },
        {
          "internalType": "address",
          "name": "_priceFeedAddress",
          "type": "address"
        }
      ],
      "name": "addToken",
      "outputs": [],
      "stateMutability": "nonpayable",
      "type": "function"
    },
    {
      "inputs": [
        {
          "internalType": "string",
          "name": "_tokenName",
          "type": "string"
        }
      ],
      "name": "tokenDecimals",
      "outputs": [
        {
          "internalType": "uint256",
          "name": "",
          "type": "uint256"
        }
      ],
      "stateMutability": "view",
      "type": "function"
    },
    {
      "inputs": [
        {
          "internalType": "address",
          "name": "_from",
          "type": "address"
        },
        {
          "internalType": "uint256",
          "name": "_amount",
          "type": "uint256"
        },
        {
          "internalType": "string",
          "name": "_tokenName",
          "type": "string"
        }
      ],
      "name": "isApproved",
      "outputs": [
        {
          "internalType": "bool",
          "name": "",
          "type": "bool"
        }
      ],
      "stateMutability": "view",
      "type": "function"
    },
    {
      "inputs": [
        {
          "internalType": "string",
          "name": "_tokenName",
          "type": "string"
        }
      ],
      "name": "getLatestPrice",
      "outputs": [
        {
          "internalType": "int256",
          "name": "",
          "type": "int256"
        }
      ],
      "stateMutability": "view",
      "type": "function"
    },
    {
      "inputs": [
        {
          "internalType": "string",
          "name": "_tokenName",
          "type": "string"
        },
        {
          "internalType": "uint256",
          "name": "_tokenAmount",
          "type": "uint256"
        },
        {
          "internalType": "uint256",
          "name": "_ethAmount",
          "type": "uint256"
        },
        {
          "internalType": "address",
          "name": "_initiator",
          "type": "address"
        }
      ],
      "name": "isExchangePossible",
      "outputs": [
        {
          "internalType": "bool",
          "name": "",
          "type": "bool"
        }
      ],
      "stateMutability": "view",
      "type": "function"
    },
    {
      "inputs": [
        {
          "internalType": "string",
          "name": "_tokenName",
          "type": "string"
        },
        {
          "internalType": "uint256",
          "name": "_tokenAmount",
          "type": "uint256"
        }
      ],
      "name": "exchange",
      "outputs": [],
      "stateMutability": "payable",
      "type": "function"
    }
  ],
  "bytecode": "0x608060405234801561001057600080fd5b5061002d61002261003260201b60201c565b61003a60201b60201c565b6100fe565b600033905090565b60008060009054906101000a900473ffffffffffffffffffffffffffffffffffffffff169050816000806101000a81548173ffffffffffffffffffffffffffffffffffffffff021916908373ffffffffffffffffffffffffffffffffffffffff1602179055508173ffffffffffffffffffffffffffffffffffffffff168173ffffffffffffffffffffffffffffffffffffffff167f8be0079c531659141344cd1fd0a4f28419497f9722a3daafe3b4186f6b6457e060405160405180910390a35050565b611f0e8061010d6000396000f3fe6080604052600436106100915760003560e01c80638da5cb5b116100595780638da5cb5b14610182578063d863d544146101ad578063f2fde38b146101d6578063f454fd9b146101ff578063f66a1b711461023c57610091565b80633416ea2714610096578063715018a6146100b257806371f71327146100c95780637a79f3ce146101065780637c8b212814610143575b600080fd5b6100b060048036038101906100ab919061118a565b610279565b005b3480156100be57600080fd5b506100c761070a565b005b3480156100d557600080fd5b506100f060048036038101906100eb9190611244565b61071e565b6040516100fd91906112e2565b60405180910390f35b34801561011257600080fd5b5061012d600480360381019061012891906112fd565b61090f565b60405161013a91906112e2565b60405180910390f35b34801561014f57600080fd5b5061016a6004803603810190610165919061136c565b6109d6565b60405161017993929190611444565b60405180910390f35b34801561018e57600080fd5b50610197610a76565b6040516101a4919061147b565b60405180910390f35b3480156101b957600080fd5b506101d460048036038101906101cf9190611496565b610a9f565b005b3480156101e257600080fd5b506101fd60048036038101906101f89190611505565b610cb2565b005b34801561020b57600080fd5b506102266004803603810190610221919061136c565b610d35565b6040516102339190611541565b60405180910390f35b34801561024857600080fd5b50610263600480360381019061025e919061136c565b610dee565b6040516102709190611575565b60405180910390f35b600060018360405161028b919061160a565b908152602001604051809103902060000160009054906101000a900473ffffffffffffffffffffffffffffffffffffffff1690506000349050600033905060006102d486610d35565b9050600081601a6102e59190611650565b600a6102f191906117b7565b9050601b8210610336576040517f08c379a000000000000000000000000000000000000000000000000000000000815260040161032d906118ab565b60405180910390fd5b600084111561052357655af3107a40008411610387576040517f08c379a000000000000000000000000000000000000000000000000000000000815260040161037e9061193d565b60405180910390fd5b60008161039389610dee565b8661039e919061195d565b6103a891906119e6565b90508573ffffffffffffffffffffffffffffffffffffffff166341e94ed36040518163ffffffff1660e01b8152600401602060405180830381865afa1580156103f5573d6000803e3d6000fd5b505050506040513d601f19601f820116820180604052508101906104199190611a2c565b811061045a576040517f08c379a000000000000000000000000000000000000000000000000000000000815260040161045190611acb565b60405180910390fd5b8573ffffffffffffffffffffffffffffffffffffffff1663236e06f686866000856040518563ffffffff1660e01b815260040161049993929190611b26565b6000604051808303818588803b1580156104b257600080fd5b505af11580156104c6573d6000803e3d6000fd5b50505050508373ffffffffffffffffffffffffffffffffffffffff167f5079755426a16c5776387f63942c35dda41cb4f6c284530e90e3fee5ca5ef3f489878460405161051593929190611b96565b60405180910390a250610701565b600061052e88610dee565b828861053a919061195d565b61054491906119e6565b9050655af3107a4000811161058e576040517f08c379a00000000000000000000000000000000000000000000000000000000081526004016105859061193d565b60405180910390fd5b8573ffffffffffffffffffffffffffffffffffffffff16633f521b4b6040518163ffffffff1660e01b8152600401602060405180830381865afa1580156105d9573d6000803e3d6000fd5b505050506040513d601f19601f820116820180604052508101906105fd9190611a2c565b811061063e576040517f08c379a000000000000000000000000000000000000000000000000000000000815260040161063590611acb565b60405180910390fd5b8573ffffffffffffffffffffffffffffffffffffffff1663236e06f68589846040518463ffffffff1660e01b815260040161067b93929190611bd4565b600060405180830381600087803b15801561069557600080fd5b505af11580156106a9573d6000803e3d6000fd5b505050508373ffffffffffffffffffffffffffffffffffffffff167f06eb8d7fada46bca77357545f9f7f2191cdfc7f6ce5d1f54ef9787daf52b633989838a6040516106f793929190611b96565b60405180910390a2505b50505050505050565b610712610eb0565b61071c6000610f2e565b565b600080600186604051610731919061160a565b908152602001604051809103902060000160009054906101000a900473ffffffffffffffffffffffffffffffffffffffff169050600061077087610d35565b9050600081601a6107819190611650565b600a61078d91906117b7565b90506000861115610848576000816107a48a610dee565b886107af919061195d565b6107b991906119e6565b90508373ffffffffffffffffffffffffffffffffffffffff166341e94ed36040518163ffffffff1660e01b8152600401602060405180830381865afa158015610806573d6000803e3d6000fd5b505050506040513d601f19601f8201168201806040525081019061082a9190611a2c565b81118061083c5750655af3107a400087105b15945050505050610907565b600061085389610dee565b828961085f919061195d565b61086991906119e6565b90508373ffffffffffffffffffffffffffffffffffffffff16633f521b4b6040518163ffffffff1660e01b8152600401602060405180830381865afa1580156108b6573d6000803e3d6000fd5b505050506040513d601f19601f820116820180604052508101906108da9190611a2c565b8111806108ec5750655af3107a400081105b806108ff57506108fd86898b61090f565b155b159450505050505b949350505050565b6000600182604051610921919061160a565b908152602001604051809103902060000160009054906101000a900473ffffffffffffffffffffffffffffffffffffffff1673ffffffffffffffffffffffffffffffffffffffff166237252b85856040518363ffffffff1660e01b815260040161098c929190611c0b565b602060405180830381865afa1580156109a9573d6000803e3d6000fd5b505050506040513d601f19601f820116820180604052508101906109cd9190611c60565b90509392505050565b6001818051602081018201805184825260208301602085012081835280955050505050506000915090508060000160009054906101000a900473ffffffffffffffffffffffffffffffffffffffff16908060010160009054906101000a900473ffffffffffffffffffffffffffffffffffffffff16908060020160009054906101000a900473ffffffffffffffffffffffffffffffffffffffff16905083565b60008060009054906101000a900473ffffffffffffffffffffffffffffffffffffffff16905090565b610aa7610eb0565b81600184604051610ab8919061160a565b908152602001604051809103902060000160006101000a81548173ffffffffffffffffffffffffffffffffffffffff021916908373ffffffffffffffffffffffffffffffffffffffff16021790555080600184604051610b18919061160a565b908152602001604051809103902060010160006101000a81548173ffffffffffffffffffffffffffffffffffffffff021916908373ffffffffffffffffffffffffffffffffffffffff160217905550600183604051610b77919061160a565b908152602001604051809103902060000160009054906101000a900473ffffffffffffffffffffffffffffffffffffffff1673ffffffffffffffffffffffffffffffffffffffff16639d76ea586040518163ffffffff1660e01b8152600401602060405180830381865afa158015610bf3573d6000803e3d6000fd5b505050506040513d601f19601f82011682018060405250810190610c179190611ca2565b600184604051610c27919061160a565b908152602001604051809103902060020160006101000a81548173ffffffffffffffffffffffffffffffffffffffff021916908373ffffffffffffffffffffffffffffffffffffffff1602179055507fd6f31369c30616ef7466a7447ae3f91a639c0385089db8c826d3150d6056d06483604051610ca59190611ccf565b60405180910390a1505050565b610cba610eb0565b600073ffffffffffffffffffffffffffffffffffffffff168173ffffffffffffffffffffffffffffffffffffffff1603610d29576040517f08c379a0000000000000000000000000000000000000000000000000000000008152600401610d2090611d63565b60405180910390fd5b610d3281610f2e565b50565b6000600182604051610d47919061160a565b908152602001604051809103902060000160009054906101000a900473ffffffffffffffffffffffffffffffffffffffff1673ffffffffffffffffffffffffffffffffffffffff1663313ce5676040518163ffffffff1660e01b8152600401602060405180830381865afa158015610dc3573d6000803e3d6000fd5b505050506040513d601f19601f82011682018060405250810190610de79190611a2c565b9050919050565b600080600183604051610e01919061160a565b908152602001604051809103902060010160009054906101000a900473ffffffffffffffffffffffffffffffffffffffff1673ffffffffffffffffffffffffffffffffffffffff1663feaf968c6040518163ffffffff1660e01b815260040160a060405180830381865afa158015610e7d573d6000803e3d6000fd5b505050506040513d601f19601f82011682018060405250810190610ea19190611df1565b50505091505080915050919050565b610eb8610ff2565b73ffffffffffffffffffffffffffffffffffffffff16610ed6610a76565b73ffffffffffffffffffffffffffffffffffffffff1614610f2c576040517f08c379a0000000000000000000000000000000000000000000000000000000008152600401610f2390611eb8565b60405180910390fd5b565b60008060009054906101000a900473ffffffffffffffffffffffffffffffffffffffff169050816000806101000a81548173ffffffffffffffffffffffffffffffffffffffff021916908373ffffffffffffffffffffffffffffffffffffffff1602179055508173ffffffffffffffffffffffffffffffffffffffff168173ffffffffffffffffffffffffffffffffffffffff167f8be0079c531659141344cd1fd0a4f28419497f9722a3daafe3b4186f6b6457e060405160405180910390a35050565b600033905090565b6000604051905090565b600080fd5b600080fd5b600080fd5b600080fd5b6000601f19601f8301169050919050565b7f4e487b7100000000000000000000000000000000000000000000000000000000600052604160045260246000fd5b61106182611018565b810181811067ffffffffffffffff821117156110805761107f611029565b5b80604052505050565b6000611093610ffa565b905061109f8282611058565b919050565b600067ffffffffffffffff8211156110bf576110be611029565b5b6110c882611018565b9050602081019050919050565b82818337600083830152505050565b60006110f76110f2846110a4565b611089565b90508281526020810184848401111561111357611112611013565b5b61111e8482856110d5565b509392505050565b600082601f83011261113b5761113a61100e565b5b813561114b8482602086016110e4565b91505092915050565b6000819050919050565b61116781611154565b811461117257600080fd5b50565b6000813590506111848161115e565b92915050565b600080604083850312156111a1576111a0611004565b5b600083013567ffffffffffffffff8111156111bf576111be611009565b5b6111cb85828601611126565b92505060206111dc85828601611175565b9150509250929050565b600073ffffffffffffffffffffffffffffffffffffffff82169050919050565b6000611211826111e6565b9050919050565b61122181611206565b811461122c57600080fd5b50565b60008135905061123e81611218565b92915050565b6000806000806080858703121561125e5761125d611004565b5b600085013567ffffffffffffffff81111561127c5761127b611009565b5b61128887828801611126565b945050602061129987828801611175565b93505060406112aa87828801611175565b92505060606112bb8782880161122f565b91505092959194509250565b60008115159050919050565b6112dc816112c7565b82525050565b60006020820190506112f760008301846112d3565b92915050565b60008060006060848603121561131657611315611004565b5b60006113248682870161122f565b935050602061133586828701611175565b925050604084013567ffffffffffffffff81111561135657611355611009565b5b61136286828701611126565b9150509250925092565b60006020828403121561138257611381611004565b5b600082013567ffffffffffffffff8111156113a05761139f611009565b5b6113ac84828501611126565b91505092915050565b6000819050919050565b60006113da6113d56113d0846111e6565b6113b5565b6111e6565b9050919050565b60006113ec826113bf565b9050919050565b60006113fe826113e1565b9050919050565b61140e816113f3565b82525050565b600061141f826113e1565b9050919050565b61142f81611414565b82525050565b61143e81611206565b82525050565b60006060820190506114596000830186611405565b6114666020830185611426565b6114736040830184611435565b949350505050565b60006020820190506114906000830184611435565b92915050565b6000806000606084860312156114af576114ae611004565b5b600084013567ffffffffffffffff8111156114cd576114cc611009565b5b6114d986828701611126565b93505060206114ea8682870161122f565b92505060406114fb8682870161122f565b9150509250925092565b60006020828403121561151b5761151a611004565b5b60006115298482850161122f565b91505092915050565b61153b81611154565b82525050565b60006020820190506115566000830184611532565b92915050565b6000819050919050565b61156f8161155c565b82525050565b600060208201905061158a6000830184611566565b92915050565b600081519050919050565b600081905092915050565b60005b838110156115c45780820151818401526020810190506115a9565b838111156115d3576000848401525b50505050565b60006115e482611590565b6115ee818561159b565b93506115fe8185602086016115a6565b80840191505092915050565b600061161682846115d9565b915081905092915050565b7f4e487b7100000000000000000000000000000000000000000000000000000000600052601160045260246000fd5b600061165b82611154565b915061166683611154565b92508282101561167957611678611621565b5b828203905092915050565b60008160011c9050919050565b6000808291508390505b60018511156116db578086048111156116b7576116b6611621565b5b60018516156116c65780820291505b80810290506116d485611684565b945061169b565b94509492505050565b6000826116f457600190506117b0565b8161170257600090506117b0565b8160018114611718576002811461172257611751565b60019150506117b0565b60ff84111561173457611733611621565b5b8360020a91508482111561174b5761174a611621565b5b506117b0565b5060208310610133831016604e8410600b84101617156117865782820a90508381111561178157611780611621565b5b6117b0565b6117938484846001611691565b925090508184048111156117aa576117a9611621565b5b81810290505b9392505050565b60006117c282611154565b91506117cd83611154565b92506117fa7fffffffffffffffffffffffffffffffffffffffffffffffffffffffffffffffff84846116e4565b905092915050565b600082825260208201905092915050565b7f446563696d616c73206f6620746f6b656e20796f752077616e7420746f20657860008201527f6368616e676520657863656564732074686520616c6c6f7765642076616c756560208201527f202873686f756c64206265206c6f776572207468616e20323729000000000000604082015250565b6000611895605a83611802565b91506118a082611813565b606082019050919050565b600060208201905081810360008301526118c481611888565b9050919050565b7f45786368616e676520616d6f756e74206973206c657373207468616e2074686560008201527f206d696e696d756d000000000000000000000000000000000000000000000000602082015250565b6000611927602883611802565b9150611932826118cb565b604082019050919050565b600060208201905081810360008301526119568161191a565b9050919050565b600061196882611154565b915061197383611154565b9250817fffffffffffffffffffffffffffffffffffffffffffffffffffffffffffffffff04831182151516156119ac576119ab611621565b5b828202905092915050565b7f4e487b7100000000000000000000000000000000000000000000000000000000600052601260045260246000fd5b60006119f182611154565b91506119fc83611154565b925082611a0c57611a0b6119b7565b5b828204905092915050565b600081519050611a268161115e565b92915050565b600060208284031215611a4257611a41611004565b5b6000611a5084828501611a17565b91505092915050565b7f496e73756666696369656e742062616c616e6365206f662073746f726167652060008201527f746f20636f6d706c6574652065786368616e6765000000000000000000000000602082015250565b6000611ab5603483611802565b9150611ac082611a59565b604082019050919050565b60006020820190508181036000830152611ae481611aa8565b9050919050565b6000819050919050565b6000611b10611b0b611b0684611aeb565b6113b5565b611154565b9050919050565b611b2081611af5565b82525050565b6000606082019050611b3b6000830186611435565b611b486020830185611b17565b611b556040830184611532565b949350505050565b6000611b6882611590565b611b728185611802565b9350611b828185602086016115a6565b611b8b81611018565b840191505092915050565b60006060820190508181036000830152611bb08186611b5d565b9050611bbf6020830185611532565b611bcc6040830184611532565b949350505050565b6000606082019050611be96000830186611435565b611bf66020830185611532565b611c036040830184611532565b949350505050565b6000604082019050611c206000830185611435565b611c2d6020830184611532565b9392505050565b611c3d816112c7565b8114611c4857600080fd5b50565b600081519050611c5a81611c34565b92915050565b600060208284031215611c7657611c75611004565b5b6000611c8484828501611c4b565b91505092915050565b600081519050611c9c81611218565b92915050565b600060208284031215611cb857611cb7611004565b5b6000611cc684828501611c8d565b91505092915050565b60006020820190508181036000830152611ce98184611b5d565b905092915050565b7f4f776e61626c653a206e6577206f776e657220697320746865207a65726f206160008201527f6464726573730000000000000000000000000000000000000000000000000000602082015250565b6000611d4d602683611802565b9150611d5882611cf1565b604082019050919050565b60006020820190508181036000830152611d7c81611d40565b9050919050565b600069ffffffffffffffffffff82169050919050565b611da281611d83565b8114611dad57600080fd5b50565b600081519050611dbf81611d99565b92915050565b611dce8161155c565b8114611dd957600080fd5b50565b600081519050611deb81611dc5565b92915050565b600080600080600060a08688031215611e0d57611e0c611004565b5b6000611e1b88828901611db0565b9550506020611e2c88828901611ddc565b9450506040611e3d88828901611a17565b9350506060611e4e88828901611a17565b9250506080611e5f88828901611db0565b9150509295509295909350565b7f4f776e61626c653a2063616c6c6572206973206e6f7420746865206f776e6572600082015250565b6000611ea2602083611802565b9150611ead82611e6c565b602082019050919050565b60006020820190508181036000830152611ed181611e95565b905091905056fea2646970667358221220fe08d2b39b2cbc9b29287347c9417db49aa78c7210c9fe2452748301dfe5a7c964736f6c634300080f0033",
  "immutableReferences": {},
  "source": "// SPDX-License-Identifier: MIT\npragma solidity >=0.8.0 <0.9.0;\nimport \"@chainlink/contracts/src/v0.8/interfaces/AggregatorV3Interface.sol\";\nimport '@openzeppelin/contracts/access/Ownable.sol';\n\n\n// interface of tokenStorage contract to make exchanges\ninterface tokenStorage{\n    function tokenStorageBalance() external view returns(uint);\n    function ethStorageBalance() external view returns(uint);\n    function exchange(address _to, uint256 _tokenAmountToGet, uint256 _amountToReturn) payable external;\n    function decimals() external view returns(uint);\n    function tokenAddress() external view returns(address);\n    function checkApprovalToStorage(address _from, uint _amount) external view returns(bool);\n}\n\n\ncontract SwapperEth is Ownable {\n    event EtherSale(address indexed _from, string _forToken, uint _ethAmount, uint _tokenAmount);\n    event TokenSale(address indexed _from, string _forToken, uint _ethAmount, uint _tokenAmount);\n    event TokenAdding(string _tokenName);\n\n    // Stores storage instance and chainlink price feed instance for ETH/erc20_token pair\n    struct tokenInfo{\n        tokenStorage storageInstance;\n        AggregatorV3Interface priceFeedInstance;\n        address tokenAddress;\n    }\n    \n    // mapping between \"tokenName\" and token info\n    mapping(string => tokenInfo) public tokenNameToInfo;\n    \n    constructor() {\n    }\n\n    /**\n     * Adds token to list of tokens. Also allows to edit existing token\n     */\n    function addToken(string memory _tokenName, address _storageAddress, address _priceFeedAddress) public onlyOwner{\n        tokenNameToInfo[_tokenName].storageInstance = tokenStorage(_storageAddress);\n        tokenNameToInfo[_tokenName].priceFeedInstance = AggregatorV3Interface(_priceFeedAddress);\n        tokenNameToInfo[_tokenName].tokenAddress = tokenNameToInfo[_tokenName].storageInstance.tokenAddress();\n        emit TokenAdding(_tokenName);\n    }\n\n    /**\n     * Returns token decimals by name\n     */\n    function tokenDecimals(string memory _tokenName) public view returns(uint){\n        return(tokenNameToInfo[_tokenName].storageInstance.decimals());\n    }\n\n    /**\n     * Checks if \"_amount\" of ERC20 token \"_tokenName\" is approved for storage to make exchanges\n     */\n    function isApproved(address _from, uint _amount, string memory _tokenName) public view returns(bool){\n        return(tokenNameToInfo[_tokenName].storageInstance.checkApprovalToStorage(_from, _amount));\n    }\n\n    /**\n     * Returns the latest price\n     */\n    function getLatestPrice(string memory _tokenName) public view returns (int) {\n        (\n            /*uint80 roundID*/,\n            int price,\n            /*uint startedAt*/,\n            /*uint timeStamp*/,\n            /*uint80 answeredInRound*/\n        ) = tokenNameToInfo[_tokenName].priceFeedInstance.latestRoundData();\n        return price;\n    }\n\n    /**\n     * Checks if exchange possible. If user want to swap Token -> Ether, \"_tokenAmount\" is amount of token to swap, \"_ethAmount\" = 0\n     * Otherwise \"_tokenAmount\" = 0, \"_ethAmount\" is amount of ether to swap\n     */\n    function isExchangePossible(string memory _tokenName, uint _tokenAmount, uint _ethAmount, address _initiator) external view returns(bool){\n        tokenStorage storageInstance_ = tokenNameToInfo[_tokenName].storageInstance;\n\n        uint decimals = tokenDecimals(_tokenName);\n        uint256 factor = 10**(26-decimals);\n\n        if (_ethAmount > 0){\n            uint amountToReturn = _ethAmount * uint(getLatestPrice(_tokenName)) / factor;\n            return !((amountToReturn > storageInstance_.tokenStorageBalance()) || (_ethAmount < 0.0001 ether));\n        }\n        else {\n            uint amountToReturn = _tokenAmount * factor / uint(getLatestPrice(_tokenName));\n            return !((amountToReturn > storageInstance_.ethStorageBalance()) || (amountToReturn < 0.0001 ether) || (! isApproved(_initiator, _tokenAmount, _tokenName)) );\n        }\n    }\n\n    /**\n     * Implements logic of exchange. \"_tokenAmount\" is the amount of token that initiator wants to exchange \n     * \"_tokenAmount\" used only if the contract does not receive ether (this means that user wants to exchange \"_tokenName\" -> ETH)\n     * If the contract receives ether, it means that the user wants to make an exchange ETH -> \"tokenName\"\n     */\n    function exchange(string memory _tokenName, uint _tokenAmount) external payable{\n        tokenStorage storageInstance_ = tokenNameToInfo[_tokenName].storageInstance;\n        \n        uint256 _ethAmount = msg.value;\n        address _initiator = msg.sender;\n\n        uint decimals = tokenDecimals(_tokenName);\n        uint256 factor = 10**(26-decimals);\n\n        require(decimals < 27, \"Decimals of token you want to exchange exceeds the allowed value (should be lower than 27)\");\n\n        if (_ethAmount > 0){    \n\n            require(_ethAmount > 0.0001 ether,\"Exchange amount is less than the minimum\");\n\n            uint amountToReturn = _ethAmount * uint(getLatestPrice(_tokenName)) / factor;\n            require(amountToReturn < storageInstance_.tokenStorageBalance(), \"Insufficient balance of storage to complete exchange\");\n            \n            storageInstance_.exchange{value: _ethAmount}(_initiator, 0, amountToReturn);\n            emit EtherSale(_initiator, _tokenName, _ethAmount, amountToReturn);\n        }\n        else{\n\n            uint amountToReturn = _tokenAmount * factor / uint(getLatestPrice(_tokenName));\n\n            require(amountToReturn > 0.0001 ether, \"Exchange amount is less than the minimum\");\n            require(amountToReturn < storageInstance_.ethStorageBalance(), \"Insufficient balance of storage to complete exchange\");\n\n            storageInstance_.exchange(_initiator, _tokenAmount, amountToReturn);\n            emit TokenSale(_initiator, _tokenName, amountToReturn, _tokenAmount);\n        }\n    }\n}\n",
  "sourcePath": "C:\\Users\\vadim\\truffleprojects\\dapp-example\\backend\\contracts\\SwapperEth.sol",
  "compiler": {
    "name": "solc",
    "version": "0.8.15+commit.e14f2714.Emscripten.clang"
  },
  "schemaVersion": "3.4.8",
  "updatedAt": "2022-10-08T15:37:31.827Z",
  "devdoc": {
    "kind": "dev",
    "methods": {
      "owner()": {
        "details": "Returns the address of the current owner."
      },
      "renounceOwnership()": {
        "details": "Leaves the contract without owner. It will not be possible to call `onlyOwner` functions anymore. Can only be called by the current owner. NOTE: Renouncing ownership will leave the contract without an owner, thereby removing any functionality that is only available to the owner."
      },
      "transferOwnership(address)": {
        "details": "Transfers ownership of the contract to a new account (`newOwner`). Can only be called by the current owner."
      }
    },
    "version": 1
  },
  "userdoc": {
    "kind": "user",
    "methods": {
      "addToken(string,address,address)": {
        "notice": "Adds token to list of tokens. Also allows to edit existing token"
      },
      "exchange(string,uint256)": {
        "notice": "Implements logic of exchange. \"_tokenAmount\" is the amount of token that initiator wants to exchange  \"_tokenAmount\" used only if the contract does not receive ether (this means that user wants to exchange \"_tokenName\" -> ETH) If the contract receives ether, it means that the user wants to make an exchange ETH -> \"tokenName\""
      },
      "getLatestPrice(string)": {
        "notice": "Returns the latest price"
      },
      "isApproved(address,uint256,string)": {
        "notice": "Checks if \"_amount\" of ERC20 token \"_tokenName\" is approved for storage to make exchanges"
      },
      "isExchangePossible(string,uint256,uint256,address)": {
        "notice": "Checks if exchange possible. If user want to swap Token -> Ether, \"_tokenAmount\" is amount of token to swap, \"_ethAmount\" = 0 Otherwise \"_tokenAmount\" = 0, \"_ethAmount\" is amount of ether to swap"
      },
      "tokenDecimals(string)": {
        "notice": "Returns token decimals by name"
      }
    },
    "version": 1
  }
}